{
  "address": "0xAeA835150dA111e82424474c104432D245fC3B78",
  "abi": [
    {
      "inputs": [
        {
          "internalType": "address",
          "name": "_cUsdAddress",
          "type": "address"
        }
      ],
      "stateMutability": "nonpayable",
      "type": "constructor"
    },
    {
      "anonymous": false,
      "inputs": [
        {
          "indexed": true,
          "internalType": "address",
          "name": "owner",
          "type": "address"
        },
        {
          "indexed": true,
          "internalType": "address",
          "name": "spender",
          "type": "address"
        },
        {
          "indexed": false,
          "internalType": "uint256",
          "name": "value",
          "type": "uint256"
        }
      ],
      "name": "Approval",
      "type": "event"
    },
    {
      "anonymous": false,
      "inputs": [
        {
          "indexed": false,
          "internalType": "bytes32",
          "name": "nonProfitName",
          "type": "bytes32"
        },
        {
          "indexed": false,
          "internalType": "uint256",
          "name": "amountUsd",
          "type": "uint256"
        }
      ],
      "name": "Donated",
      "type": "event"
    },
    {
      "anonymous": false,
      "inputs": [
        {
          "components": [
            {
              "internalType": "bytes32",
              "name": "name",
              "type": "bytes32"
            },
            {
              "internalType": "address",
              "name": "wallet",
              "type": "address"
            }
          ],
          "indexed": false,
          "internalType": "struct NonProfitsHandler.NonProfit[]",
          "name": "nonProfits",
          "type": "tuple[]"
        }
      ],
      "name": "NonProfitsAdded",
      "type": "event"
    },
    {
      "anonymous": false,
      "inputs": [
        {
          "components": [
            {
              "internalType": "bytes32",
              "name": "name",
              "type": "bytes32"
            },
            {
              "internalType": "address",
              "name": "wallet",
              "type": "address"
            }
          ],
          "indexed": false,
          "internalType": "struct NonProfitsHandler.NonProfit[]",
          "name": "nonProfits",
          "type": "tuple[]"
        }
      ],
      "name": "NonProfitsSet",
      "type": "event"
    },
    {
      "anonymous": false,
      "inputs": [
        {
          "indexed": true,
          "internalType": "address",
          "name": "previousOwner",
          "type": "address"
        },
        {
          "indexed": true,
          "internalType": "address",
          "name": "newOwner",
          "type": "address"
        }
      ],
      "name": "OwnershipTransferred",
      "type": "event"
    },
    {
      "anonymous": false,
      "inputs": [
        {
          "indexed": false,
          "internalType": "uint256",
          "name": "newPercentage",
          "type": "uint256"
        }
      ],
      "name": "PercentageSymbMintChanged",
      "type": "event"
    },
    {
      "anonymous": false,
      "inputs": [
        {
          "indexed": true,
          "internalType": "address",
          "name": "from",
          "type": "address"
        },
        {
          "indexed": true,
          "internalType": "address",
          "name": "to",
          "type": "address"
        },
        {
          "indexed": false,
          "internalType": "uint256",
          "name": "value",
          "type": "uint256"
        }
      ],
      "name": "Transfer",
      "type": "event"
    },
    {
      "inputs": [
        {
          "components": [
            {
              "internalType": "bytes32",
              "name": "name",
              "type": "bytes32"
            },
            {
              "internalType": "address",
              "name": "wallet",
              "type": "address"
            }
          ],
          "internalType": "struct NonProfitsHandler.NonProfit[]",
          "name": "newNonProfits",
          "type": "tuple[]"
        }
      ],
      "name": "addNonProfits",
      "outputs": [],
      "stateMutability": "nonpayable",
      "type": "function"
    },
    {
      "inputs": [
        {
          "internalType": "address",
          "name": "owner",
          "type": "address"
        },
        {
          "internalType": "address",
          "name": "spender",
          "type": "address"
        }
      ],
      "name": "allowance",
      "outputs": [
        {
          "internalType": "uint256",
          "name": "",
          "type": "uint256"
        }
      ],
      "stateMutability": "view",
      "type": "function"
    },
    {
      "inputs": [
        {
          "internalType": "address",
          "name": "spender",
          "type": "address"
        },
        {
          "internalType": "uint256",
          "name": "amount",
          "type": "uint256"
        }
      ],
      "name": "approve",
      "outputs": [
        {
          "internalType": "bool",
          "name": "",
          "type": "bool"
        }
      ],
      "stateMutability": "nonpayable",
      "type": "function"
    },
    {
      "inputs": [
        {
          "internalType": "address",
          "name": "account",
          "type": "address"
        }
      ],
      "name": "balanceOf",
      "outputs": [
        {
          "internalType": "uint256",
          "name": "",
          "type": "uint256"
        }
      ],
      "stateMutability": "view",
      "type": "function"
    },
    {
      "inputs": [],
      "name": "cUSD",
      "outputs": [
        {
          "internalType": "contract IERC20",
          "name": "",
          "type": "address"
        }
      ],
      "stateMutability": "view",
      "type": "function"
    },
    {
      "inputs": [],
      "name": "decimals",
      "outputs": [
        {
          "internalType": "uint8",
          "name": "",
          "type": "uint8"
        }
      ],
      "stateMutability": "view",
      "type": "function"
    },
    {
      "inputs": [
        {
          "internalType": "address",
          "name": "spender",
          "type": "address"
        },
        {
          "internalType": "uint256",
          "name": "subtractedValue",
          "type": "uint256"
        }
      ],
      "name": "decreaseAllowance",
      "outputs": [
        {
          "internalType": "bool",
          "name": "",
          "type": "bool"
        }
      ],
      "stateMutability": "nonpayable",
      "type": "function"
    },
    {
      "inputs": [
        {
          "internalType": "uint256",
          "name": "nonProfitIndex",
          "type": "uint256"
        },
        {
          "internalType": "uint256",
          "name": "amountUsd",
          "type": "uint256"
        }
      ],
      "name": "donate",
      "outputs": [],
      "stateMutability": "nonpayable",
      "type": "function"
    },
    {
      "inputs": [],
      "name": "getNonProfits",
      "outputs": [
        {
          "components": [
            {
              "internalType": "bytes32",
              "name": "name",
              "type": "bytes32"
            },
            {
              "internalType": "address",
              "name": "wallet",
              "type": "address"
            }
          ],
          "internalType": "struct NonProfitsHandler.NonProfit[]",
          "name": "",
          "type": "tuple[]"
        }
      ],
      "stateMutability": "view",
      "type": "function"
    },
    {
      "inputs": [
        {
          "internalType": "address",
          "name": "spender",
          "type": "address"
        },
        {
          "internalType": "uint256",
          "name": "addedValue",
          "type": "uint256"
        }
      ],
      "name": "increaseAllowance",
      "outputs": [
        {
          "internalType": "bool",
          "name": "",
          "type": "bool"
        }
      ],
      "stateMutability": "nonpayable",
      "type": "function"
    },
    {
      "inputs": [],
      "name": "name",
      "outputs": [
        {
          "internalType": "string",
          "name": "",
          "type": "string"
        }
      ],
      "stateMutability": "view",
      "type": "function"
    },
    {
      "inputs": [],
      "name": "owner",
      "outputs": [
        {
          "internalType": "address",
          "name": "",
          "type": "address"
        }
      ],
      "stateMutability": "view",
      "type": "function"
    },
    {
      "inputs": [],
      "name": "percentageSymbMint",
      "outputs": [
        {
          "internalType": "uint256",
          "name": "",
          "type": "uint256"
        }
      ],
      "stateMutability": "view",
      "type": "function"
    },
    {
      "inputs": [],
      "name": "renounceOwnership",
      "outputs": [],
      "stateMutability": "nonpayable",
      "type": "function"
    },
    {
      "inputs": [
        {
          "components": [
            {
              "internalType": "bytes32",
              "name": "name",
              "type": "bytes32"
            },
            {
              "internalType": "address",
              "name": "wallet",
              "type": "address"
            }
          ],
          "internalType": "struct NonProfitsHandler.NonProfit[]",
          "name": "newNonProfits",
          "type": "tuple[]"
        }
      ],
      "name": "setNonProfits",
      "outputs": [],
      "stateMutability": "nonpayable",
      "type": "function"
    },
    {
      "inputs": [
        {
          "internalType": "uint256",
          "name": "percentage",
          "type": "uint256"
        }
      ],
      "name": "setPercentageSymbMint",
      "outputs": [],
      "stateMutability": "nonpayable",
      "type": "function"
    },
    {
      "inputs": [],
      "name": "symbol",
      "outputs": [
        {
          "internalType": "string",
          "name": "",
          "type": "string"
        }
      ],
      "stateMutability": "view",
      "type": "function"
    },
    {
      "inputs": [],
      "name": "totalSupply",
      "outputs": [
        {
          "internalType": "uint256",
          "name": "",
          "type": "uint256"
        }
      ],
      "stateMutability": "view",
      "type": "function"
    },
    {
      "inputs": [
        {
          "internalType": "address",
          "name": "to",
          "type": "address"
        },
        {
          "internalType": "uint256",
          "name": "amount",
          "type": "uint256"
        }
      ],
      "name": "transfer",
      "outputs": [
        {
          "internalType": "bool",
          "name": "",
          "type": "bool"
        }
      ],
      "stateMutability": "nonpayable",
      "type": "function"
    },
    {
      "inputs": [
        {
          "internalType": "address",
          "name": "from",
          "type": "address"
        },
        {
          "internalType": "address",
          "name": "to",
          "type": "address"
        },
        {
          "internalType": "uint256",
          "name": "amount",
          "type": "uint256"
        }
      ],
      "name": "transferFrom",
      "outputs": [
        {
          "internalType": "bool",
          "name": "",
          "type": "bool"
        }
      ],
      "stateMutability": "nonpayable",
      "type": "function"
    },
    {
      "inputs": [
        {
          "internalType": "address",
          "name": "newOwner",
          "type": "address"
        }
      ],
      "name": "transferOwnership",
      "outputs": [],
      "stateMutability": "nonpayable",
      "type": "function"
    }
  ],
  "transactionHash": "0xf2de937d697af5153dbcea5822b7c5a0095837b1409963c96779b4cebef1ce5c",
  "args": [
    "0x874069Fa1Eb16D44d622F2e0Ca25eeA172369bC1"
  ],
  "numDeployments": 2,
  "solcInputHash": "4ee75dbf5a4e6fef189623fbd139be90",
  "bytecode": "0x608060405260016008553480156200001657600080fd5b5060405162002dd238038062002dd283398181016040528101906200003c9190620002db565b806040518060400160405280600f81526020017f53796d62696f74696320546f6b656e00000000000000000000000000000000008152506040518060400160405280600481526020017f53594d42000000000000000000000000000000000000000000000000000000008152508160039080519060200190620000c192919062000214565b508060049080519060200190620000da92919062000214565b505050620000fd620000f16200014660201b60201c565b6200014e60201b60201c565b80600760006101000a81548173ffffffffffffffffffffffffffffffffffffffff021916908373ffffffffffffffffffffffffffffffffffffffff1602179055505050620003ba565b600033905090565b6000600560009054906101000a900473ffffffffffffffffffffffffffffffffffffffff16905081600560006101000a81548173ffffffffffffffffffffffffffffffffffffffff021916908373ffffffffffffffffffffffffffffffffffffffff1602179055508173ffffffffffffffffffffffffffffffffffffffff168173ffffffffffffffffffffffffffffffffffffffff167f8be0079c531659141344cd1fd0a4f28419497f9722a3daafe3b4186f6b6457e060405160405180910390a35050565b82805462000222906200033b565b90600052602060002090601f01602090048101928262000246576000855562000292565b82601f106200026157805160ff191683800117855562000292565b8280016001018555821562000292579182015b828111156200029157825182559160200191906001019062000274565b5b509050620002a19190620002a5565b5090565b5b80821115620002c0576000816000905550600101620002a6565b5090565b600081519050620002d581620003a0565b92915050565b600060208284031215620002ee57600080fd5b6000620002fe84828501620002c4565b91505092915050565b600062000314826200031b565b9050919050565b600073ffffffffffffffffffffffffffffffffffffffff82169050919050565b600060028204905060018216806200035457607f821691505b602082108114156200036b576200036a62000371565b5b50919050565b7f4e487b7100000000000000000000000000000000000000000000000000000000600052602260045260246000fd5b620003ab8162000307565b8114620003b757600080fd5b50565b612a0880620003ca6000396000f3fe608060405234801561001057600080fd5b50600436106101375760003560e01c8063715018a6116100b8578063a457c2d71161007c578063a457c2d71461032e578063a4814a891461035e578063a9059cbb1461037a578063bc53cfca146103aa578063dd62ed3e146103c6578063f2fde38b146103f657610137565b8063715018a6146102ac57806377d1adcd146102b65780638da5cb5b146102d4578063902afd7c146102f257806395d89b411461031057610137565b80631fccf672116100ff5780631fccf672146101e057806323b872dd146101fe578063313ce5671461022e578063395093511461024c57806370a082311461027c57610137565b806306fdde031461013c578063095ea7b31461015a5780630cdd53f61461018a5780630d734419146101a657806318160ddd146101c2575b600080fd5b610144610412565b6040516101519190611f36565b60405180910390f35b610174600480360381019061016f9190611953565b6104a4565b6040516101819190611ed7565b60405180910390f35b6101a4600480360381019061019f9190611a4f565b6104c7565b005b6101c060048036038101906101bb919061198f565b6107b2565b005b6101ca610912565b6040516101d791906120d8565b60405180910390f35b6101e861091c565b6040516101f59190611f1b565b60405180910390f35b61021860048036038101906102139190611904565b610942565b6040516102259190611ed7565b60405180910390f35b610236610971565b60405161024391906120f3565b60405180910390f35b61026660048036038101906102619190611953565b61097a565b6040516102739190611ed7565b60405180910390f35b6102966004803603810190610291919061189f565b6109b1565b6040516102a391906120d8565b60405180910390f35b6102b46109f9565b005b6102be610a81565b6040516102cb91906120d8565b60405180910390f35b6102dc610a87565b6040516102e99190611e41565b60405180910390f35b6102fa610ab1565b6040516103079190611e93565b60405180910390f35b610318610b70565b6040516103259190611f36565b60405180910390f35b61034860048036038101906103439190611953565b610c02565b6040516103559190611ed7565b60405180910390f35b6103786004803603810190610373919061198f565b610c79565b005b610394600480360381019061038f9190611953565b610dcb565b6040516103a19190611ed7565b60405180910390f35b6103c460048036038101906103bf91906119fd565b610dee565b005b6103e060048036038101906103db91906118c8565b610eab565b6040516103ed91906120d8565b60405180910390f35b610410600480360381019061040b919061189f565b610f32565b005b606060038054610421906123df565b80601f016020809104026020016040519081016040528092919081815260200182805461044d906123df565b801561049a5780601f1061046f5761010080835404028352916020019161049a565b820191906000526020600020905b81548152906001019060200180831161047d57829003601f168201915b5050505050905090565b6000806104af61102a565b90506104bc818585611032565b600191505092915050565b600680549050821061050e576040517f08c379a000000000000000000000000000000000000000000000000000000000815260040161050590611ff8565b60405180910390fd5b80600760009054906101000a900473ffffffffffffffffffffffffffffffffffffffff1673ffffffffffffffffffffffffffffffffffffffff166370a08231336040518263ffffffff1660e01b815260040161056a9190611e41565b60206040518083038186803b15801561058257600080fd5b505afa158015610596573d6000803e3d6000fd5b505050506040513d601f19601f820116820180604052508101906105ba9190611a26565b10156105fb576040517f08c379a00000000000000000000000000000000000000000000000000000000081526004016105f290612038565b60405180910390fd5b61060d33610608836111fd565b61122e565b600760009054906101000a900473ffffffffffffffffffffffffffffffffffffffff1673ffffffffffffffffffffffffffffffffffffffff166323b872dd3360068581548110610686577f4e487b7100000000000000000000000000000000000000000000000000000000600052603260045260246000fd5b906000526020600020906002020160010160009054906101000a900473ffffffffffffffffffffffffffffffffffffffff16846040518463ffffffff1660e01b81526004016106d793929190611e5c565b602060405180830381600087803b1580156106f157600080fd5b505af1158015610705573d6000803e3d6000fd5b505050506040513d601f19601f8201168201806040525081019061072991906119d4565b507f1ac3d8b8850216f438fa10de7472259377d853d150820b2ebc7bbe2746fb5d6760068381548110610785577f4e487b7100000000000000000000000000000000000000000000000000000000600052603260045260246000fd5b906000526020600020906002020160000154826040516107a6929190611ef2565b60405180910390a15050565b6107ba61102a565b73ffffffffffffffffffffffffffffffffffffffff166107d8610a87565b73ffffffffffffffffffffffffffffffffffffffff161461082e576040517f08c379a000000000000000000000000000000000000000000000000000000000815260040161082590612018565b60405180910390fd5b6006600061083c9190611797565b60005b828290508110156108d5576006838383818110610885577f4e487b7100000000000000000000000000000000000000000000000000000000600052603260045260246000fd5b905060400201908060018154018082558091505060019003906000526020600020906002020160009091909190915081816108c09190612968565b505080806108cd90612445565b91505061083f565b507f9d3a0282d301f131a49bf79142f64980c4b473c39a7663257b57dba2cd612a7760066040516109069190611eb5565b60405180910390a15050565b6000600254905090565b600760009054906101000a900473ffffffffffffffffffffffffffffffffffffffff1681565b60008061094d61102a565b905061095a85828561138e565b61096585858561141a565b60019150509392505050565b60006012905090565b60008061098561102a565b90506109a68185856109978589610eab565b6109a19190612190565b611032565b600191505092915050565b60008060008373ffffffffffffffffffffffffffffffffffffffff1673ffffffffffffffffffffffffffffffffffffffff168152602001908152602001600020549050919050565b610a0161102a565b73ffffffffffffffffffffffffffffffffffffffff16610a1f610a87565b73ffffffffffffffffffffffffffffffffffffffff1614610a75576040517f08c379a0000000000000000000000000000000000000000000000000000000008152600401610a6c90612018565b60405180910390fd5b610a7f600061169b565b565b60085481565b6000600560009054906101000a900473ffffffffffffffffffffffffffffffffffffffff16905090565b60606006805480602002602001604051908101604052809291908181526020016000905b82821015610b675783829060005260206000209060020201604051806040016040529081600082015481526020016001820160009054906101000a900473ffffffffffffffffffffffffffffffffffffffff1673ffffffffffffffffffffffffffffffffffffffff1673ffffffffffffffffffffffffffffffffffffffff168152505081526020019060010190610ad5565b50505050905090565b606060048054610b7f906123df565b80601f0160208091040260200160405190810160405280929190818152602001828054610bab906123df565b8015610bf85780601f10610bcd57610100808354040283529160200191610bf8565b820191906000526020600020905b815481529060010190602001808311610bdb57829003601f168201915b5050505050905090565b600080610c0d61102a565b90506000610c1b8286610eab565b905083811015610c60576040517f08c379a0000000000000000000000000000000000000000000000000000000008152600401610c5790612098565b60405180910390fd5b610c6d8286868403611032565b60019250505092915050565b610c8161102a565b73ffffffffffffffffffffffffffffffffffffffff16610c9f610a87565b73ffffffffffffffffffffffffffffffffffffffff1614610cf5576040517f08c379a0000000000000000000000000000000000000000000000000000000008152600401610cec90612018565b60405180910390fd5b60005b82829050811015610d8e576006838383818110610d3e577f4e487b7100000000000000000000000000000000000000000000000000000000600052603260045260246000fd5b90506040020190806001815401808255809150506001900390600052602060002090600202016000909190919091508181610d799190612968565b50508080610d8690612445565b915050610cf8565b507f99e7210d3681d92c193bc3686aeea2ce3bdefc4ac7eb5e133e2f1b0835e1176d6006604051610dbf9190611eb5565b60405180910390a15050565b600080610dd661102a565b9050610de381858561141a565b600191505092915050565b610df661102a565b73ffffffffffffffffffffffffffffffffffffffff16610e14610a87565b73ffffffffffffffffffffffffffffffffffffffff1614610e6a576040517f08c379a0000000000000000000000000000000000000000000000000000000008152600401610e6190612018565b60405180910390fd5b806008819055507fa62ecc871b6e09e4714e61d04ebcfcc6d80fbabb6014dbdfe535f743287b64a081604051610ea091906120d8565b60405180910390a150565b6000600160008473ffffffffffffffffffffffffffffffffffffffff1673ffffffffffffffffffffffffffffffffffffffff16815260200190815260200160002060008373ffffffffffffffffffffffffffffffffffffffff1673ffffffffffffffffffffffffffffffffffffffff16815260200190815260200160002054905092915050565b610f3a61102a565b73ffffffffffffffffffffffffffffffffffffffff16610f58610a87565b73ffffffffffffffffffffffffffffffffffffffff1614610fae576040517f08c379a0000000000000000000000000000000000000000000000000000000008152600401610fa590612018565b60405180910390fd5b600073ffffffffffffffffffffffffffffffffffffffff168173ffffffffffffffffffffffffffffffffffffffff16141561101e576040517f08c379a000000000000000000000000000000000000000000000000000000000815260040161101590611f78565b60405180910390fd5b6110278161169b565b50565b600033905090565b600073ffffffffffffffffffffffffffffffffffffffff168373ffffffffffffffffffffffffffffffffffffffff1614156110a2576040517f08c379a000000000000000000000000000000000000000000000000000000000815260040161109990612078565b60405180910390fd5b600073ffffffffffffffffffffffffffffffffffffffff168273ffffffffffffffffffffffffffffffffffffffff161415611112576040517f08c379a000000000000000000000000000000000000000000000000000000000815260040161110990611f98565b60405180910390fd5b80600160008573ffffffffffffffffffffffffffffffffffffffff1673ffffffffffffffffffffffffffffffffffffffff16815260200190815260200160002060008473ffffffffffffffffffffffffffffffffffffffff1673ffffffffffffffffffffffffffffffffffffffff168152602001908152602001600020819055508173ffffffffffffffffffffffffffffffffffffffff168373ffffffffffffffffffffffffffffffffffffffff167f8c5be1e5ebec7d5bd14f71427d1e84f3dd0314c0f7b2291e5b200ac8c7c3b925836040516111f091906120d8565b60405180910390a3505050565b600061122760646112196008548561176190919063ffffffff16565b61177790919063ffffffff16565b9050919050565b600073ffffffffffffffffffffffffffffffffffffffff168273ffffffffffffffffffffffffffffffffffffffff16141561129e576040517f08c379a0000000000000000000000000000000000000000000000000000000008152600401611295906120b8565b60405180910390fd5b6112aa6000838361178d565b80600260008282546112bc9190612190565b92505081905550806000808473ffffffffffffffffffffffffffffffffffffffff1673ffffffffffffffffffffffffffffffffffffffff16815260200190815260200160002060008282546113119190612190565b925050819055508173ffffffffffffffffffffffffffffffffffffffff16600073ffffffffffffffffffffffffffffffffffffffff167fddf252ad1be2c89b69c2b068fc378daa952ba7f163c4a11628f55a4df523b3ef8360405161137691906120d8565b60405180910390a361138a60008383611792565b5050565b600061139a8484610eab565b90507fffffffffffffffffffffffffffffffffffffffffffffffffffffffffffffffff81146114145781811015611406576040517f08c379a00000000000000000000000000000000000000000000000000000000081526004016113fd90611fb8565b60405180910390fd5b6114138484848403611032565b5b50505050565b600073ffffffffffffffffffffffffffffffffffffffff168373ffffffffffffffffffffffffffffffffffffffff16141561148a576040517f08c379a000000000000000000000000000000000000000000000000000000000815260040161148190612058565b60405180910390fd5b600073ffffffffffffffffffffffffffffffffffffffff168273ffffffffffffffffffffffffffffffffffffffff1614156114fa576040517f08c379a00000000000000000000000000000000000000000000000000000000081526004016114f190611f58565b60405180910390fd5b61150583838361178d565b60008060008573ffffffffffffffffffffffffffffffffffffffff1673ffffffffffffffffffffffffffffffffffffffff1681526020019081526020016000205490508181101561158b576040517f08c379a000000000000000000000000000000000000000000000000000000000815260040161158290611fd8565b60405180910390fd5b8181036000808673ffffffffffffffffffffffffffffffffffffffff1673ffffffffffffffffffffffffffffffffffffffff16815260200190815260200160002081905550816000808573ffffffffffffffffffffffffffffffffffffffff1673ffffffffffffffffffffffffffffffffffffffff168152602001908152602001600020600082825461161e9190612190565b925050819055508273ffffffffffffffffffffffffffffffffffffffff168473ffffffffffffffffffffffffffffffffffffffff167fddf252ad1be2c89b69c2b068fc378daa952ba7f163c4a11628f55a4df523b3ef8460405161168291906120d8565b60405180910390a3611695848484611792565b50505050565b6000600560009054906101000a900473ffffffffffffffffffffffffffffffffffffffff16905081600560006101000a81548173ffffffffffffffffffffffffffffffffffffffff021916908373ffffffffffffffffffffffffffffffffffffffff1602179055508173ffffffffffffffffffffffffffffffffffffffff168173ffffffffffffffffffffffffffffffffffffffff167f8be0079c531659141344cd1fd0a4f28419497f9722a3daafe3b4186f6b6457e060405160405180910390a35050565b6000818361176f9190612217565b905092915050565b6000818361178591906121e6565b905092915050565b505050565b505050565b50805460008255600202906000526020600020908101906117b891906117bb565b50565b5b808211156117fd576000808201600090556001820160006101000a81549073ffffffffffffffffffffffffffffffffffffffff0219169055506002016117bc565b5090565b60008135905061181081612976565b92915050565b60008083601f84011261182857600080fd5b8235905067ffffffffffffffff81111561184157600080fd5b60208301915083604082028301111561185957600080fd5b9250929050565b60008151905061186f8161298d565b92915050565b600081359050611884816129bb565b92915050565b600081519050611899816129bb565b92915050565b6000602082840312156118b157600080fd5b60006118bf84828501611801565b91505092915050565b600080604083850312156118db57600080fd5b60006118e985828601611801565b92505060206118fa85828601611801565b9150509250929050565b60008060006060848603121561191957600080fd5b600061192786828701611801565b935050602061193886828701611801565b925050604061194986828701611875565b9150509250925092565b6000806040838503121561196657600080fd5b600061197485828601611801565b925050602061198585828601611875565b9150509250929050565b600080602083850312156119a257600080fd5b600083013567ffffffffffffffff8111156119bc57600080fd5b6119c885828601611816565b92509250509250929050565b6000602082840312156119e657600080fd5b60006119f484828501611860565b91505092915050565b600060208284031215611a0f57600080fd5b6000611a1d84828501611875565b91505092915050565b600060208284031215611a3857600080fd5b6000611a468482850161188a565b91505092915050565b60008060408385031215611a6257600080fd5b6000611a7085828601611875565b9250506020611a8185828601611875565b9150509250929050565b6000611a978383611dad565b60408301905092915050565b6000611aaf8383611ddc565b60408301905092915050565b611ac48161229b565b82525050565b611ad38161229b565b82525050565b6000611ae482612133565b611aee818561216e565b9350611af98361210e565b8060005b83811015611b2a578151611b118882611a8b565b9750611b1c83612154565b925050600181019050611afd565b5085935050505092915050565b6000611b428261213e565b611b4c818561216e565b9350611b578361211e565b8060005b83811015611b875781611b6e8882611aa3565b9750611b7983612161565b925050600181019050611b5b565b5085935050505092915050565b611b9d816122ad565b82525050565b611bac816122b9565b82525050565b611bbb816122b9565b82525050565b611bca8161231e565b82525050565b6000611bdb82612149565b611be5818561217f565b9350611bf5818560208601612366565b611bfe81612563565b840191505092915050565b6000611c1660238361217f565b9150611c218261258e565b604082019050919050565b6000611c3960268361217f565b9150611c44826125dd565b604082019050919050565b6000611c5c60228361217f565b9150611c678261262c565b604082019050919050565b6000611c7f601d8361217f565b9150611c8a8261267b565b602082019050919050565b6000611ca260268361217f565b9150611cad826126a4565b604082019050919050565b6000611cc560158361217f565b9150611cd0826126f3565b602082019050919050565b6000611ce860208361217f565b9150611cf38261271c565b602082019050919050565b6000611d0b60218361217f565b9150611d1682612745565b604082019050919050565b6000611d2e60258361217f565b9150611d3982612794565b604082019050919050565b6000611d5160248361217f565b9150611d5c826127e3565b604082019050919050565b6000611d7460258361217f565b9150611d7f82612832565b604082019050919050565b6000611d97601f8361217f565b9150611da282612881565b602082019050919050565b604082016000820151611dc36000850182611ba3565b506020820151611dd66020850182611abb565b50505050565b604082016000808301549050611df18161242b565b611dfe6000860182611ba3565b5060018301549050611e0f81612411565b611e1c6020860182611abb565b5050505050565b611e2c816122e3565b82525050565b611e3b816122ed565b82525050565b6000602082019050611e566000830184611aca565b92915050565b6000606082019050611e716000830186611aca565b611e7e6020830185611aca565b611e8b6040830184611e23565b949350505050565b60006020820190508181036000830152611ead8184611ad9565b905092915050565b60006020820190508181036000830152611ecf8184611b37565b905092915050565b6000602082019050611eec6000830184611b94565b92915050565b6000604082019050611f076000830185611bb2565b611f146020830184611e23565b9392505050565b6000602082019050611f306000830184611bc1565b92915050565b60006020820190508181036000830152611f508184611bd0565b905092915050565b60006020820190508181036000830152611f7181611c09565b9050919050565b60006020820190508181036000830152611f9181611c2c565b9050919050565b60006020820190508181036000830152611fb181611c4f565b9050919050565b60006020820190508181036000830152611fd181611c72565b9050919050565b60006020820190508181036000830152611ff181611c95565b9050919050565b6000602082019050818103600083015261201181611cb8565b9050919050565b6000602082019050818103600083015261203181611cdb565b9050919050565b6000602082019050818103600083015261205181611cfe565b9050919050565b6000602082019050818103600083015261207181611d21565b9050919050565b6000602082019050818103600083015261209181611d44565b9050919050565b600060208201905081810360008301526120b181611d67565b9050919050565b600060208201905081810360008301526120d181611d8a565b9050919050565b60006020820190506120ed6000830184611e23565b92915050565b60006020820190506121086000830184611e32565b92915050565b6000819050602082019050919050565b60008190508160005260206000209050919050565b600081519050919050565b600081549050919050565b600081519050919050565b6000602082019050919050565b6000600282019050919050565b600082825260208201905092915050565b600082825260208201905092915050565b600061219b826122e3565b91506121a6836122e3565b9250827fffffffffffffffffffffffffffffffffffffffffffffffffffffffffffffffff038211156121db576121da61248e565b5b828201905092915050565b60006121f1826122e3565b91506121fc836122e3565b92508261220c5761220b6124bd565b5b828204905092915050565b6000612222826122e3565b915061222d836122e3565b9250817fffffffffffffffffffffffffffffffffffffffffffffffffffffffffffffffff04831182151516156122665761226561248e565b5b828202905092915050565b600073ffffffffffffffffffffffffffffffffffffffff82169050919050565b6000819050919050565b60006122a6826122c3565b9050919050565b60008115159050919050565b6000819050919050565b600073ffffffffffffffffffffffffffffffffffffffff82169050919050565b6000819050919050565b600060ff82169050919050565b600061230582612342565b9050919050565b6000612317826122b9565b9050919050565b600061232982612330565b9050919050565b600061233b826122c3565b9050919050565b600061234d82612354565b9050919050565b600061235f826122c3565b9050919050565b60005b83811015612384578082015181840152602081019050612369565b83811115612393576000848401525b50505050565b6000810160008301806123ab8161254d565b90506123b78184612945565b5050506001810160208301806123cc81612537565b90506123d88184612922565b5050505050565b600060028204905060018216806123f757607f821691505b6020821081141561240b5761240a6124ec565b5b50919050565b600061242461241f83612581565b612271565b9050919050565b600061243e61243983612581565b612291565b9050919050565b6000612450826122e3565b91507fffffffffffffffffffffffffffffffffffffffffffffffffffffffffffffffff8214156124835761248261248e565b5b600182019050919050565b7f4e487b7100000000000000000000000000000000000000000000000000000000600052601160045260246000fd5b7f4e487b7100000000000000000000000000000000000000000000000000000000600052601260045260246000fd5b7f4e487b7100000000000000000000000000000000000000000000000000000000600052602260045260246000fd5b6000819050919050565b600061253082612581565b9050919050565b6000813561254481612976565b80915050919050565b6000813561255a816129a4565b80915050919050565b6000601f19601f8301169050919050565b60008160001b9050919050565b60008160001c9050919050565b7f45524332303a207472616e7366657220746f20746865207a65726f206164647260008201527f6573730000000000000000000000000000000000000000000000000000000000602082015250565b7f4f776e61626c653a206e6577206f776e657220697320746865207a65726f206160008201527f6464726573730000000000000000000000000000000000000000000000000000602082015250565b7f45524332303a20617070726f766520746f20746865207a65726f20616464726560008201527f7373000000000000000000000000000000000000000000000000000000000000602082015250565b7f45524332303a20696e73756666696369656e7420616c6c6f77616e6365000000600082015250565b7f45524332303a207472616e7366657220616d6f756e742065786365656473206260008201527f616c616e63650000000000000000000000000000000000000000000000000000602082015250565b7f496e64657820646f6573206e6f742065786973742e0000000000000000000000600082015250565b7f4f776e61626c653a2063616c6c6572206973206e6f7420746865206f776e6572600082015250565b7f53656e64657220646f6573206e6f742068617665207468617420616d6f756e7460008201527f2e00000000000000000000000000000000000000000000000000000000000000602082015250565b7f45524332303a207472616e736665722066726f6d20746865207a65726f20616460008201527f6472657373000000000000000000000000000000000000000000000000000000602082015250565b7f45524332303a20617070726f76652066726f6d20746865207a65726f2061646460008201527f7265737300000000000000000000000000000000000000000000000000000000602082015250565b7f45524332303a2064656372656173656420616c6c6f77616e63652062656c6f7760008201527f207a65726f000000000000000000000000000000000000000000000000000000602082015250565b7f45524332303a206d696e7420746f20746865207a65726f206164647265737300600082015250565b600073ffffffffffffffffffffffffffffffffffffffff6128ca84612574565b9350801983169250808416831791505092915050565b60007fffffffffffffffffffffffffffffffffffffffffffffffffffffffffffffffff61290c84612574565b9350801983169250808416831791505092915050565b61292b826122fa565b61293e6129378261251b565b83546128aa565b8255505050565b61294e8261230c565b61296161295a82612525565b83546128e0565b8255505050565b6129728282612399565b5050565b61297f8161229b565b811461298a57600080fd5b50565b612996816122ad565b81146129a157600080fd5b50565b6129ad816122b9565b81146129b857600080fd5b50565b6129c4816122e3565b81146129cf57600080fd5b5056fea264697066735822122002b490859763cf17daa5740ed1fdb0b09c962eb19609c20738c97d61d0369db864736f6c63430008040033",
  "devdoc": {
    "kind": "dev",
    "methods": {
      "allowance(address,address)": {
        "details": "See {IERC20-allowance}."
      },
      "approve(address,uint256)": {
        "details": "See {IERC20-approve}. NOTE: If `amount` is the maximum `uint256`, the allowance is not updated on `transferFrom`. This is semantically equivalent to an infinite approval. Requirements: - `spender` cannot be the zero address."
      },
      "balanceOf(address)": {
        "details": "See {IERC20-balanceOf}."
      },
      "decimals()": {
        "details": "Returns the number of decimals used to get its user representation. For example, if `decimals` equals `2`, a balance of `505` tokens should be displayed to a user as `5.05` (`505 / 10 ** 2`). Tokens usually opt for a value of 18, imitating the relationship between Ether and Wei. This is the value {ERC20} uses, unless this function is overridden; NOTE: This information is only used for _display_ purposes: it in no way affects any of the arithmetic of the contract, including {IERC20-balanceOf} and {IERC20-transfer}."
      },
      "decreaseAllowance(address,uint256)": {
        "details": "Atomically decreases the allowance granted to `spender` by the caller. This is an alternative to {approve} that can be used as a mitigation for problems described in {IERC20-approve}. Emits an {Approval} event indicating the updated allowance. Requirements: - `spender` cannot be the zero address. - `spender` must have allowance for the caller of at least `subtractedValue`."
      },
      "increaseAllowance(address,uint256)": {
        "details": "Atomically increases the allowance granted to `spender` by the caller. This is an alternative to {approve} that can be used as a mitigation for problems described in {IERC20-approve}. Emits an {Approval} event indicating the updated allowance. Requirements: - `spender` cannot be the zero address."
      },
      "name()": {
        "details": "Returns the name of the token."
      },
      "owner()": {
        "details": "Returns the address of the current owner."
      },
      "renounceOwnership()": {
        "details": "Leaves the contract without owner. It will not be possible to call `onlyOwner` functions anymore. Can only be called by the current owner. NOTE: Renouncing ownership will leave the contract without an owner, thereby removing any functionality that is only available to the owner."
      },
      "symbol()": {
        "details": "Returns the symbol of the token, usually a shorter version of the name."
      },
      "totalSupply()": {
        "details": "See {IERC20-totalSupply}."
      },
      "transfer(address,uint256)": {
        "details": "See {IERC20-transfer}. Requirements: - `to` cannot be the zero address. - the caller must have a balance of at least `amount`."
      },
      "transferFrom(address,address,uint256)": {
        "details": "See {IERC20-transferFrom}. Emits an {Approval} event indicating the updated allowance. This is not required by the EIP. See the note at the beginning of {ERC20}. NOTE: Does not update the allowance if the current allowance is the maximum `uint256`. Requirements: - `from` and `to` cannot be the zero address. - `from` must have a balance of at least `amount`. - the caller must have allowance for ``from``'s tokens of at least `amount`."
      },
      "transferOwnership(address)": {
        "details": "Transfers ownership of the contract to a new account (`newOwner`). Can only be called by the current owner."
      }
    },
    "version": 1
  },
  "userdoc": {
    "kind": "user",
    "methods": {},
    "version": 1
  },
  "storageLayout": {
    "storage": [
      {
        "astId": 120,
        "contract": "contracts/SymbioticProtocol.sol:SymbioticProtocol",
        "label": "_balances",
        "offset": 0,
        "slot": "0",
        "type": "t_mapping(t_address,t_uint256)"
      },
      {
        "astId": 126,
        "contract": "contracts/SymbioticProtocol.sol:SymbioticProtocol",
        "label": "_allowances",
        "offset": 0,
        "slot": "1",
        "type": "t_mapping(t_address,t_mapping(t_address,t_uint256))"
      },
      {
        "astId": 128,
        "contract": "contracts/SymbioticProtocol.sol:SymbioticProtocol",
        "label": "_totalSupply",
        "offset": 0,
        "slot": "2",
        "type": "t_uint256"
      },
      {
        "astId": 130,
        "contract": "contracts/SymbioticProtocol.sol:SymbioticProtocol",
        "label": "_name",
        "offset": 0,
        "slot": "3",
        "type": "t_string_storage"
      },
      {
        "astId": 132,
        "contract": "contracts/SymbioticProtocol.sol:SymbioticProtocol",
        "label": "_symbol",
        "offset": 0,
        "slot": "4",
        "type": "t_string_storage"
      },
      {
        "astId": 7,
        "contract": "contracts/SymbioticProtocol.sol:SymbioticProtocol",
        "label": "_owner",
        "offset": 0,
        "slot": "5",
        "type": "t_address"
      },
      {
        "astId": 1154,
        "contract": "contracts/SymbioticProtocol.sol:SymbioticProtocol",
        "label": "nonProfits",
        "offset": 0,
        "slot": "6",
        "type": "t_array(t_struct(NonProfit)1138_storage)dyn_storage"
      },
      {
        "astId": 1157,
        "contract": "contracts/SymbioticProtocol.sol:SymbioticProtocol",
        "label": "cUSD",
        "offset": 0,
        "slot": "7",
        "type": "t_contract(IERC20)768"
      },
      {
        "astId": 1269,
        "contract": "contracts/SymbioticProtocol.sol:SymbioticProtocol",
        "label": "percentageSymbMint",
        "offset": 0,
        "slot": "8",
        "type": "t_uint256"
      }
    ],
    "types": {
      "t_address": {
        "encoding": "inplace",
        "label": "address",
        "numberOfBytes": "20"
      },
      "t_array(t_struct(NonProfit)1138_storage)dyn_storage": {
        "base": "t_struct(NonProfit)1138_storage",
        "encoding": "dynamic_array",
        "label": "struct NonProfitsHandler.NonProfit[]",
        "numberOfBytes": "32"
      },
      "t_bytes32": {
        "encoding": "inplace",
        "label": "bytes32",
        "numberOfBytes": "32"
      },
      "t_contract(IERC20)768": {
        "encoding": "inplace",
        "label": "contract IERC20",
        "numberOfBytes": "20"
      },
      "t_mapping(t_address,t_mapping(t_address,t_uint256))": {
        "encoding": "mapping",
        "key": "t_address",
        "label": "mapping(address => mapping(address => uint256))",
        "numberOfBytes": "32",
        "value": "t_mapping(t_address,t_uint256)"
      },
      "t_mapping(t_address,t_uint256)": {
        "encoding": "mapping",
        "key": "t_address",
        "label": "mapping(address => uint256)",
        "numberOfBytes": "32",
        "value": "t_uint256"
      },
      "t_string_storage": {
        "encoding": "bytes",
        "label": "string",
        "numberOfBytes": "32"
      },
      "t_struct(NonProfit)1138_storage": {
        "encoding": "inplace",
        "label": "struct NonProfitsHandler.NonProfit",
        "members": [
          {
            "astId": 1135,
            "contract": "contracts/SymbioticProtocol.sol:SymbioticProtocol",
            "label": "name",
            "offset": 0,
            "slot": "0",
            "type": "t_bytes32"
          },
          {
            "astId": 1137,
            "contract": "contracts/SymbioticProtocol.sol:SymbioticProtocol",
            "label": "wallet",
            "offset": 0,
            "slot": "1",
            "type": "t_address"
          }
        ],
        "numberOfBytes": "64"
      },
      "t_uint256": {
        "encoding": "inplace",
        "label": "uint256",
        "numberOfBytes": "32"
      }
    }
  }
}